{
    "_format": "hh-sol-artifact-1",
    "contractName": "NFTMarketplace",
    "sourceName": "contracts/NFTMarketplace.sol",
    "abi": [
        {
            "inputs": [],
            "stateMutability": "nonpayable",
            "type": "constructor"
        },
        {
            "inputs": [
                {
                    "internalType": "address",
                    "name": "sender",
                    "type": "address"
                },
                {
                    "internalType": "uint256",
                    "name": "tokenId",
                    "type": "uint256"
                },
                {
                    "internalType": "address",
                    "name": "owner",
                    "type": "address"
                }
            ],
            "name": "ERC721IncorrectOwner",
            "type": "error"
        },
        {
            "inputs": [
                {
                    "internalType": "address",
                    "name": "operator",
                    "type": "address"
                },
                {
                    "internalType": "uint256",
                    "name": "tokenId",
                    "type": "uint256"
                }
            ],
            "name": "ERC721InsufficientApproval",
            "type": "error"
        },
        {
            "inputs": [
                {
                    "internalType": "address",
                    "name": "approver",
                    "type": "address"
                }
            ],
            "name": "ERC721InvalidApprover",
            "type": "error"
        },
        {
            "inputs": [
                {
                    "internalType": "address",
                    "name": "operator",
                    "type": "address"
                }
            ],
            "name": "ERC721InvalidOperator",
            "type": "error"
        },
        {
            "inputs": [
                {
                    "internalType": "address",
                    "name": "owner",
                    "type": "address"
                }
            ],
            "name": "ERC721InvalidOwner",
            "type": "error"
        },
        {
            "inputs": [
                {
                    "internalType": "address",
                    "name": "receiver",
                    "type": "address"
                }
            ],
            "name": "ERC721InvalidReceiver",
            "type": "error"
        },
        {
            "inputs": [
                {
                    "internalType": "address",
                    "name": "sender",
                    "type": "address"
                }
            ],
            "name": "ERC721InvalidSender",
            "type": "error"
        },
        {
            "inputs": [
                {
                    "internalType": "uint256",
                    "name": "tokenId",
                    "type": "uint256"
                }
            ],
            "name": "ERC721NonexistentToken",
            "type": "error"
        },
        {
            "anonymous": false,
            "inputs": [
                {
                    "indexed": true,
                    "internalType": "address",
                    "name": "owner",
                    "type": "address"
                },
                {
                    "indexed": true,
                    "internalType": "address",
                    "name": "approved",
                    "type": "address"
                },
                {
                    "indexed": true,
                    "internalType": "uint256",
                    "name": "tokenId",
                    "type": "uint256"
                }
            ],
            "name": "Approval",
            "type": "event"
        },
        {
            "anonymous": false,
            "inputs": [
                {
                    "indexed": true,
                    "internalType": "address",
                    "name": "owner",
                    "type": "address"
                },
                {
                    "indexed": true,
                    "internalType": "address",
                    "name": "operator",
                    "type": "address"
                },
                {
                    "indexed": false,
                    "internalType": "bool",
                    "name": "approved",
                    "type": "bool"
                }
            ],
            "name": "ApprovalForAll",
            "type": "event"
        },
        {
            "anonymous": false,
            "inputs": [
                {
                    "indexed": false,
                    "internalType": "uint256",
                    "name": "_fromTokenId",
                    "type": "uint256"
                },
                {
                    "indexed": false,
                    "internalType": "uint256",
                    "name": "_toTokenId",
                    "type": "uint256"
                }
            ],
            "name": "BatchMetadataUpdate",
            "type": "event"
        },
        {
            "anonymous": false,
            "inputs": [
                {
                    "indexed": false,
                    "internalType": "uint256",
                    "name": "_tokenId",
                    "type": "uint256"
                }
            ],
            "name": "MetadataUpdate",
            "type": "event"
        },
        {
            "anonymous": false,
            "inputs": [
                {
                    "indexed": true,
                    "internalType": "address",
                    "name": "from",
                    "type": "address"
                },
                {
                    "indexed": true,
                    "internalType": "address",
                    "name": "to",
                    "type": "address"
                },
                {
                    "indexed": true,
                    "internalType": "uint256",
                    "name": "tokenId",
                    "type": "uint256"
                }
            ],
            "name": "Transfer",
            "type": "event"
        },
        {
            "anonymous": false,
            "inputs": [
                {
                    "indexed": false,
                    "internalType": "string",
                    "name": "title",
                    "type": "string"
                },
                {
                    "indexed": false,
                    "internalType": "string",
                    "name": "description",
                    "type": "string"
                },
                {
                    "indexed": true,
                    "internalType": "uint256",
                    "name": "tokenId",
                    "type": "uint256"
                },
                {
                    "indexed": false,
                    "internalType": "uint256",
                    "name": "likes",
                    "type": "uint256"
                },
                {
                    "indexed": false,
                    "internalType": "uint256",
                    "name": "price",
                    "type": "uint256"
                },
                {
                    "indexed": false,
                    "internalType": "address[]",
                    "name": "subscribers",
                    "type": "address[]"
                },
                {
                    "indexed": false,
                    "internalType": "address payable",
                    "name": "owner",
                    "type": "address"
                },
                {
                    "indexed": false,
                    "internalType": "address payable",
                    "name": "seller",
                    "type": "address"
                }
            ],
            "name": "nftsStructEvent",
            "type": "event"
        },
        {
            "inputs": [
                {
                    "internalType": "address",
                    "name": "to",
                    "type": "address"
                },
                {
                    "internalType": "uint256",
                    "name": "tokenId",
                    "type": "uint256"
                }
            ],
            "name": "approve",
            "outputs": [],
            "stateMutability": "nonpayable",
            "type": "function"
        },
        {
            "inputs": [
                {
                    "internalType": "address",
                    "name": "owner",
                    "type": "address"
                }
            ],
            "name": "balanceOf",
            "outputs": [
                {
                    "internalType": "uint256",
                    "name": "",
                    "type": "uint256"
                }
            ],
            "stateMutability": "view",
            "type": "function"
        },
        {
            "inputs": [
                {
                    "internalType": "uint256",
                    "name": "_buyTokenId",
                    "type": "uint256"
                }
            ],
            "name": "buyNft",
            "outputs": [
                {
                    "internalType": "bool",
                    "name": "",
                    "type": "bool"
                }
            ],
            "stateMutability": "payable",
            "type": "function"
        },
        {
            "inputs": [
                {
                    "internalType": "string",
                    "name": "_tokenUrI",
                    "type": "string"
                },
                {
                    "internalType": "string",
                    "name": "_title",
                    "type": "string"
                },
                {
                    "internalType": "string",
                    "name": "_description",
                    "type": "string"
                }
            ],
            "name": "createNft",
            "outputs": [
                {
                    "internalType": "uint256",
                    "name": "",
                    "type": "uint256"
                }
            ],
            "stateMutability": "nonpayable",
            "type": "function"
        },
        {
            "inputs": [
                {
                    "internalType": "uint256",
                    "name": "tokenId",
                    "type": "uint256"
                }
            ],
            "name": "getApproved",
            "outputs": [
                {
                    "internalType": "address",
                    "name": "",
                    "type": "address"
                }
            ],
            "stateMutability": "view",
            "type": "function"
        },
        {
            "inputs": [],
            "name": "getCollectables",
            "outputs": [
                {
                    "components": [
                        {
                            "internalType": "string",
                            "name": "title",
                            "type": "string"
                        },
                        {
                            "internalType": "string",
                            "name": "description",
                            "type": "string"
                        },
                        {
                            "internalType": "uint256",
                            "name": "tokenId",
                            "type": "uint256"
                        },
                        {
                            "internalType": "uint256",
                            "name": "likes",
                            "type": "uint256"
                        },
                        {
                            "internalType": "uint256",
                            "name": "price",
                            "type": "uint256"
                        },
                        {
                            "internalType": "address[]",
                            "name": "subscribers",
                            "type": "address[]"
                        },
                        {
                            "internalType": "address payable",
                            "name": "owner",
                            "type": "address"
                        },
                        {
                            "internalType": "address payable",
                            "name": "seller",
                            "type": "address"
                        }
                    ],
                    "internalType": "struct NFTMarketplace.nftsStruct[]",
                    "name": "",
                    "type": "tuple[]"
                }
            ],
            "stateMutability": "view",
            "type": "function"
        },
        {
            "inputs": [
                {
                    "internalType": "uint256",
                    "name": "_individualNftTokenId",
                    "type": "uint256"
                }
            ],
            "name": "getIndividualNft",
            "outputs": [
                {
                    "components": [
                        {
                            "internalType": "string",
                            "name": "title",
                            "type": "string"
                        },
                        {
                            "internalType": "string",
                            "name": "description",
                            "type": "string"
                        },
                        {
                            "internalType": "uint256",
                            "name": "tokenId",
                            "type": "uint256"
                        },
                        {
                            "internalType": "uint256",
                            "name": "likes",
                            "type": "uint256"
                        },
                        {
                            "internalType": "uint256",
                            "name": "price",
                            "type": "uint256"
                        },
                        {
                            "internalType": "address[]",
                            "name": "subscribers",
                            "type": "address[]"
                        },
                        {
                            "internalType": "address payable",
                            "name": "owner",
                            "type": "address"
                        },
                        {
                            "internalType": "address payable",
                            "name": "seller",
                            "type": "address"
                        }
                    ],
                    "internalType": "struct NFTMarketplace.nftsStruct",
                    "name": "",
                    "type": "tuple"
                }
            ],
            "stateMutability": "view",
            "type": "function"
        },
        {
            "inputs": [],
            "name": "getNFTS",
            "outputs": [
                {
                    "components": [
                        {
                            "internalType": "string",
                            "name": "title",
                            "type": "string"
                        },
                        {
                            "internalType": "string",
                            "name": "description",
                            "type": "string"
                        },
                        {
                            "internalType": "uint256",
                            "name": "tokenId",
                            "type": "uint256"
                        },
                        {
                            "internalType": "uint256",
                            "name": "likes",
                            "type": "uint256"
                        },
                        {
                            "internalType": "uint256",
                            "name": "price",
                            "type": "uint256"
                        },
                        {
                            "internalType": "address[]",
                            "name": "subscribers",
                            "type": "address[]"
                        },
                        {
                            "internalType": "address payable",
                            "name": "owner",
                            "type": "address"
                        },
                        {
                            "internalType": "address payable",
                            "name": "seller",
                            "type": "address"
                        }
                    ],
                    "internalType": "struct NFTMarketplace.nftsStruct[]",
                    "name": "",
                    "type": "tuple[]"
                }
            ],
            "stateMutability": "view",
            "type": "function"
        },
        {
            "inputs": [],
            "name": "getSubscriptions",
            "outputs": [
                {
                    "components": [
                        {
                            "internalType": "string",
                            "name": "title",
                            "type": "string"
                        },
                        {
                            "internalType": "string",
                            "name": "description",
                            "type": "string"
                        },
                        {
                            "internalType": "uint256",
                            "name": "tokenId",
                            "type": "uint256"
                        },
                        {
                            "internalType": "uint256",
                            "name": "likes",
                            "type": "uint256"
                        },
                        {
                            "internalType": "uint256",
                            "name": "price",
                            "type": "uint256"
                        },
                        {
                            "internalType": "address[]",
                            "name": "subscribers",
                            "type": "address[]"
                        },
                        {
                            "internalType": "address payable",
                            "name": "owner",
                            "type": "address"
                        },
                        {
                            "internalType": "address payable",
                            "name": "seller",
                            "type": "address"
                        }
                    ],
                    "internalType": "struct NFTMarketplace.nftsStruct[]",
                    "name": "",
                    "type": "tuple[]"
                }
            ],
            "stateMutability": "view",
            "type": "function"
        },
        {
            "inputs": [
                {
                    "internalType": "address",
                    "name": "owner",
                    "type": "address"
                },
                {
                    "internalType": "address",
                    "name": "operator",
                    "type": "address"
                }
            ],
            "name": "isApprovedForAll",
            "outputs": [
                {
                    "internalType": "bool",
                    "name": "",
                    "type": "bool"
                }
            ],
            "stateMutability": "view",
            "type": "function"
        },
        {
            "inputs": [
                {
                    "internalType": "uint256",
                    "name": "_likeTokenId",
                    "type": "uint256"
                }
            ],
            "name": "likeSubscription",
            "outputs": [],
            "stateMutability": "nonpayable",
            "type": "function"
        },
        {
            "inputs": [],
            "name": "name",
            "outputs": [
                {
                    "internalType": "string",
                    "name": "",
                    "type": "string"
                }
            ],
            "stateMutability": "view",
            "type": "function"
        },
        {
            "inputs": [
                {
                    "internalType": "uint256",
                    "name": "tokenId",
                    "type": "uint256"
                }
            ],
            "name": "ownerOf",
            "outputs": [
                {
                    "internalType": "address",
                    "name": "",
                    "type": "address"
                }
            ],
            "stateMutability": "view",
            "type": "function"
        },
        {
            "inputs": [
                {
                    "internalType": "address",
                    "name": "from",
                    "type": "address"
                },
                {
                    "internalType": "address",
                    "name": "to",
                    "type": "address"
                },
                {
                    "internalType": "uint256",
                    "name": "tokenId",
                    "type": "uint256"
                }
            ],
            "name": "safeTransferFrom",
            "outputs": [],
            "stateMutability": "nonpayable",
            "type": "function"
        },
        {
            "inputs": [
                {
                    "internalType": "address",
                    "name": "from",
                    "type": "address"
                },
                {
                    "internalType": "address",
                    "name": "to",
                    "type": "address"
                },
                {
                    "internalType": "uint256",
                    "name": "tokenId",
                    "type": "uint256"
                },
                {
                    "internalType": "bytes",
                    "name": "data",
                    "type": "bytes"
                }
            ],
            "name": "safeTransferFrom",
            "outputs": [],
            "stateMutability": "nonpayable",
            "type": "function"
        },
        {
            "inputs": [
                {
                    "internalType": "uint256",
                    "name": "_sellTokenId",
                    "type": "uint256"
                },
                {
                    "internalType": "uint256",
                    "name": "_price",
                    "type": "uint256"
                }
            ],
            "name": "sellNft",
            "outputs": [
                {
                    "internalType": "uint256",
                    "name": "",
                    "type": "uint256"
                }
            ],
            "stateMutability": "nonpayable",
            "type": "function"
        },
        {
            "inputs": [
                {
                    "internalType": "address",
                    "name": "operator",
                    "type": "address"
                },
                {
                    "internalType": "bool",
                    "name": "approved",
                    "type": "bool"
                }
            ],
            "name": "setApprovalForAll",
            "outputs": [],
            "stateMutability": "nonpayable",
            "type": "function"
        },
        {
            "inputs": [
                {
                    "internalType": "bytes4",
                    "name": "interfaceId",
                    "type": "bytes4"
                }
            ],
            "name": "supportsInterface",
            "outputs": [
                {
                    "internalType": "bool",
                    "name": "",
                    "type": "bool"
                }
            ],
            "stateMutability": "view",
            "type": "function"
        },
        {
            "inputs": [],
            "name": "symbol",
            "outputs": [
                {
                    "internalType": "string",
                    "name": "",
                    "type": "string"
                }
            ],
            "stateMutability": "view",
            "type": "function"
        },
        {
            "inputs": [
                {
                    "internalType": "uint256",
                    "name": "tokenId",
                    "type": "uint256"
                }
            ],
            "name": "tokenURI",
            "outputs": [
                {
                    "internalType": "string",
                    "name": "",
                    "type": "string"
                }
            ],
            "stateMutability": "view",
            "type": "function"
        },
        {
            "inputs": [
                {
                    "internalType": "address",
                    "name": "from",
                    "type": "address"
                },
                {
                    "internalType": "address",
                    "name": "to",
                    "type": "address"
                },
                {
                    "internalType": "uint256",
                    "name": "tokenId",
                    "type": "uint256"
                }
            ],
            "name": "transferFrom",
            "outputs": [],
            "stateMutability": "nonpayable",
            "type": "function"
        },
        {
            "inputs": [
                {
                    "internalType": "uint256",
                    "name": "_likeTokenId",
                    "type": "uint256"
                }
            ],
            "name": "unlikeSubscription",
            "outputs": [],
            "stateMutability": "nonpayable",
            "type": "function"
        }
    ],
    "bytecode": "0x608060405234801561001057600080fd5b506040518060400160405280601981526020017f4e4654204d6167617a696e6520537562736372697074696f6e000000000000008152506040518060400160405280600381526020017f4d45470000000000000000000000000000000000000000000000000000000000815250816000908161008c91906102f4565b50806001908161009c91906102f4565b5050506103c6565b600081519050919050565b7f4e487b7100000000000000000000000000000000000000000000000000000000600052604160045260246000fd5b7f4e487b7100000000000000000000000000000000000000000000000000000000600052602260045260246000fd5b6000600282049050600182168061012557607f821691505b602082108103610138576101376100de565b5b50919050565b60008190508160005260206000209050919050565b60006020601f8301049050919050565b600082821b905092915050565b6000600883026101a07fffffffffffffffffffffffffffffffffffffffffffffffffffffffffffffffff82610163565b6101aa8683610163565b95508019841693508086168417925050509392505050565b6000819050919050565b6000819050919050565b60006101f16101ec6101e7846101c2565b6101cc565b6101c2565b9050919050565b6000819050919050565b61020b836101d6565b61021f610217826101f8565b848454610170565b825550505050565b600090565b610234610227565b61023f818484610202565b505050565b5b818110156102635761025860008261022c565b600181019050610245565b5050565b601f8211156102a8576102798161013e565b61028284610153565b81016020851015610291578190505b6102a561029d85610153565b830182610244565b50505b505050565b600082821c905092915050565b60006102cb600019846008026102ad565b1980831691505092915050565b60006102e483836102ba565b9150826002028217905092915050565b6102fd826100a4565b67ffffffffffffffff811115610316576103156100af565b5b610320825461010d565b61032b828285610267565b600060209050601f83116001811461035e576000841561034c578287015190505b61035685826102d8565b8655506103be565b601f19841661036c8661013e565b60005b828110156103945784890151825560018201915060208501945060208101905061036f565b868310156103b157848901516103ad601f8916826102ba565b8355505b6001600288020188555050505b505050505050565b614487806103d56000396000f3fe6080604052600436106101355760003560e01c80635d5422d4116100ab57806395d89b411161006f57806395d89b4114610465578063a22cb46514610490578063b88d4fde146104b9578063c87b56dd146104e2578063c9df90811461051f578063e985e9c51461054857610135565b80635d5422d41461035a5780636352211e1461039757806367a23596146103d457806370a08231146103ff57806374bde7ea1461043c57610135565b806323b872dd116100fd57806323b872dd14610233578063243adbdd1461025c5780633b47a9ac1461028c57806342842e0e146102b7578063497a9850146102e05780635208eb091461031d57610135565b806301ffc9a71461013a57806306fdde0314610177578063081812fc146101a257806308ffc4a9146101df578063095ea7b31461020a575b600080fd5b34801561014657600080fd5b50610161600480360381019061015c91906130cb565b610585565b60405161016e9190613113565b60405180910390f35b34801561018357600080fd5b5061018c6105e6565b60405161019991906131be565b60405180910390f35b3480156101ae57600080fd5b506101c960048036038101906101c49190613216565b610678565b6040516101d69190613284565b60405180910390f35b3480156101eb57600080fd5b506101f4610694565b6040516102019190613557565b60405180910390f35b34801561021657600080fd5b50610231600480360381019061022c91906135a5565b610a8d565b005b34801561023f57600080fd5b5061025a600480360381019061025591906135e5565b610aa3565b005b61027660048036038101906102719190613216565b610ba5565b6040516102839190613113565b60405180910390f35b34801561029857600080fd5b506102a1610dbd565b6040516102ae9190613557565b60405180910390f35b3480156102c357600080fd5b506102de60048036038101906102d991906135e5565b611162565b005b3480156102ec57600080fd5b506103076004803603810190610302919061376d565b611182565b6040516103149190613823565b60405180910390f35b34801561032957600080fd5b50610344600480360381019061033f919061383e565b6111cd565b6040516103519190613823565b60405180910390f35b34801561036657600080fd5b50610381600480360381019061037c9190613216565b6112ed565b60405161038e919061393c565b60405180910390f35b3480156103a357600080fd5b506103be60048036038101906103b99190613216565b611597565b6040516103cb9190613284565b60405180910390f35b3480156103e057600080fd5b506103e96115a9565b6040516103f69190613557565b60405180910390f35b34801561040b57600080fd5b506104266004803603810190610421919061395e565b61194e565b6040516104339190613823565b60405180910390f35b34801561044857600080fd5b50610463600480360381019061045e9190613216565b611a08565b005b34801561047157600080fd5b5061047a611a39565b60405161048791906131be565b60405180910390f35b34801561049c57600080fd5b506104b760048036038101906104b291906139b7565b611acb565b005b3480156104c557600080fd5b506104e060048036038101906104db9190613a98565b611ae1565b005b3480156104ee57600080fd5b5061050960048036038101906105049190613216565b611b06565b60405161051691906131be565b60405180910390f35b34801561052b57600080fd5b5061054660048036038101906105419190613216565b611c19565b005b34801561055457600080fd5b5061056f600480360381019061056a9190613b1b565b611c4a565b60405161057c9190613113565b60405180910390f35b6000634906490660e01b7bffffffffffffffffffffffffffffffffffffffffffffffffffffffff1916827bffffffffffffffffffffffffffffffffffffffffffffffffffffffff191614806105df57506105de82611cde565b5b9050919050565b6060600080546105f590613b8a565b80601f016020809104026020016040519081016040528092919081815260200182805461062190613b8a565b801561066e5780601f106106435761010080835404028352916020019161066e565b820191906000526020600020905b81548152906001019060200180831161065157829003601f168201915b5050505050905090565b600061068382611dc0565b5061068d82611e48565b9050919050565b60606000600854905060008167ffffffffffffffff8111156106b9576106b8613642565b5b6040519080825280602002602001820160405280156106f257816020015b6106df612f47565b8152602001906001900390816106d75790505b50905060005b82811015610a845760006007600083815260200190815260200160002060050180549050905060005b81811015610a75573373ffffffffffffffffffffffffffffffffffffffff1660076000858152602001908152602001600020600501828154811061076857610767613bbb565b5b9060005260206000200160009054906101000a900473ffffffffffffffffffffffffffffffffffffffff1673ffffffffffffffffffffffffffffffffffffffff1603610a685760076000848152602001908152602001600020604051806101000160405290816000820180546107dd90613b8a565b80601f016020809104026020016040519081016040528092919081815260200182805461080990613b8a565b80156108565780601f1061082b57610100808354040283529160200191610856565b820191906000526020600020905b81548152906001019060200180831161083957829003601f168201915b5050505050815260200160018201805461086f90613b8a565b80601f016020809104026020016040519081016040528092919081815260200182805461089b90613b8a565b80156108e85780601f106108bd576101008083540402835291602001916108e8565b820191906000526020600020905b8154815290600101906020018083116108cb57829003601f168201915b505050505081526020016002820154815260200160038201548152602001600482015481526020016005820180548060200260200160405190810160405280929190818152602001828054801561099457602002820191906000526020600020905b8160009054906101000a900473ffffffffffffffffffffffffffffffffffffffff1673ffffffffffffffffffffffffffffffffffffffff168152602001906001019080831161094a575b505050505081526020016006820160009054906101000a900473ffffffffffffffffffffffffffffffffffffffff1673ffffffffffffffffffffffffffffffffffffffff1673ffffffffffffffffffffffffffffffffffffffff1681526020016007820160009054906101000a900473ffffffffffffffffffffffffffffffffffffffff1673ffffffffffffffffffffffffffffffffffffffff1673ffffffffffffffffffffffffffffffffffffffff1681525050848481518110610a5c57610a5b613bbb565b5b60200260200101819052505b8080600101915050610721565b505080806001019150506106f8565b50809250505090565b610a9f8282610a9a611e85565b611e8d565b5050565b600073ffffffffffffffffffffffffffffffffffffffff168273ffffffffffffffffffffffffffffffffffffffff1603610b155760006040517f64a0ae92000000000000000000000000000000000000000000000000000000008152600401610b0c9190613284565b60405180910390fd5b6000610b298383610b24611e85565b611e9f565b90508373ffffffffffffffffffffffffffffffffffffffff168173ffffffffffffffffffffffffffffffffffffffff1614610b9f578382826040517f64283d7b000000000000000000000000000000000000000000000000000000008152600401610b9693929190613bea565b60405180910390fd5b50505050565b60003073ffffffffffffffffffffffffffffffffffffffff166007600084815260200190815260200160002060060160009054906101000a900473ffffffffffffffffffffffffffffffffffffffff1673ffffffffffffffffffffffffffffffffffffffff1614610c4b576040517f08c379a0000000000000000000000000000000000000000000000000000000008152600401610c4290613c6d565b60405180910390fd5b6007600083815260200190815260200160002060040154341015610ca4576040517f08c379a0000000000000000000000000000000000000000000000000000000008152600401610c9b90613cd9565b60405180910390fd5b60076000600854815260200190815260200160002060070160009054906101000a900473ffffffffffffffffffffffffffffffffffffffff1673ffffffffffffffffffffffffffffffffffffffff166108fc349081150290604051600060405180830381858888f19350505050158015610d22573d6000803e3d6000fd5b50600760006008548152602001908152602001600020600501339080600181540180825580915050600190039060005260206000200160009091909190916101000a81548173ffffffffffffffffffffffffffffffffffffffff021916908373ffffffffffffffffffffffffffffffffffffffff16021790555060096000815480929190610daf90613d28565b919050555060019050919050565b60606000600854905060008167ffffffffffffffff811115610de257610de1613642565b5b604051908082528060200260200182016040528015610e1b57816020015b610e08612f47565b815260200190600190039081610e005790505b50905060005b82811015611159573073ffffffffffffffffffffffffffffffffffffffff166007600083815260200190815260200160002060060160009054906101000a900473ffffffffffffffffffffffffffffffffffffffff1673ffffffffffffffffffffffffffffffffffffffff160361114c576007600082815260200190815260200160002060405180610100016040529081600082018054610ec190613b8a565b80601f0160208091040260200160405190810160405280929190818152602001828054610eed90613b8a565b8015610f3a5780601f10610f0f57610100808354040283529160200191610f3a565b820191906000526020600020905b815481529060010190602001808311610f1d57829003601f168201915b50505050508152602001600182018054610f5390613b8a565b80601f0160208091040260200160405190810160405280929190818152602001828054610f7f90613b8a565b8015610fcc5780601f10610fa157610100808354040283529160200191610fcc565b820191906000526020600020905b815481529060010190602001808311610faf57829003601f168201915b505050505081526020016002820154815260200160038201548152602001600482015481526020016005820180548060200260200160405190810160405280929190818152602001828054801561107857602002820191906000526020600020905b8160009054906101000a900473ffffffffffffffffffffffffffffffffffffffff1673ffffffffffffffffffffffffffffffffffffffff168152602001906001019080831161102e575b505050505081526020016006820160009054906101000a900473ffffffffffffffffffffffffffffffffffffffff1673ffffffffffffffffffffffffffffffffffffffff1673ffffffffffffffffffffffffffffffffffffffff1681526020016007820160009054906101000a900473ffffffffffffffffffffffffffffffffffffffff1673ffffffffffffffffffffffffffffffffffffffff1673ffffffffffffffffffffffffffffffffffffffff16815250508282815181106111405761113f613bbb565b5b60200260200101819052505b8080600101915050610e21565b50809250505090565b61117d83838360405180602001604052806000815250611ae1565b505050565b60006008600081548092919061119790613d51565b9190505550600060085490506111ad33826120b9565b6111b781866121b2565b6111c281858561220e565b809150509392505050565b60006112106007600085815260200190815260200160002060060160009054906101000a900473ffffffffffffffffffffffffffffffffffffffff163385612428565b61124f576040517f08c379a000000000000000000000000000000000000000000000000000000000815260040161124690613de5565b60405180910390fd5b61125a3330856124e9565b816007600085815260200190815260200160002060040181905550306007600085815260200190815260200160002060060160006101000a81548173ffffffffffffffffffffffffffffffffffffffff021916908373ffffffffffffffffffffffffffffffffffffffff160217905550600960008154809291906112dd90613d51565b9190505550600954905092915050565b6112f5612f47565b600760008381526020019081526020016000206040518061010001604052908160008201805461132490613b8a565b80601f016020809104026020016040519081016040528092919081815260200182805461135090613b8a565b801561139d5780601f106113725761010080835404028352916020019161139d565b820191906000526020600020905b81548152906001019060200180831161138057829003601f168201915b505050505081526020016001820180546113b690613b8a565b80601f01602080910402602001604051908101604052809291908181526020018280546113e290613b8a565b801561142f5780601f106114045761010080835404028352916020019161142f565b820191906000526020600020905b81548152906001019060200180831161141257829003601f168201915b50505050508152602001600282015481526020016003820154815260200160048201548152602001600582018054806020026020016040519081016040528092919081815260200182805480156114db57602002820191906000526020600020905b8160009054906101000a900473ffffffffffffffffffffffffffffffffffffffff1673ffffffffffffffffffffffffffffffffffffffff1681526020019060010190808311611491575b505050505081526020016006820160009054906101000a900473ffffffffffffffffffffffffffffffffffffffff1673ffffffffffffffffffffffffffffffffffffffff1673ffffffffffffffffffffffffffffffffffffffff1681526020016007820160009054906101000a900473ffffffffffffffffffffffffffffffffffffffff1673ffffffffffffffffffffffffffffffffffffffff1673ffffffffffffffffffffffffffffffffffffffff16815250509050919050565b60006115a282611dc0565b9050919050565b60606000600854905060008167ffffffffffffffff8111156115ce576115cd613642565b5b60405190808252806020026020018201604052801561160757816020015b6115f4612f47565b8152602001906001900390816115ec5790505b50905060005b82811015611945573373ffffffffffffffffffffffffffffffffffffffff166007600083815260200190815260200160002060070160009054906101000a900473ffffffffffffffffffffffffffffffffffffffff1673ffffffffffffffffffffffffffffffffffffffff16036119385760076000828152602001908152602001600020604051806101000160405290816000820180546116ad90613b8a565b80601f01602080910402602001604051908101604052809291908181526020018280546116d990613b8a565b80156117265780601f106116fb57610100808354040283529160200191611726565b820191906000526020600020905b81548152906001019060200180831161170957829003601f168201915b5050505050815260200160018201805461173f90613b8a565b80601f016020809104026020016040519081016040528092919081815260200182805461176b90613b8a565b80156117b85780601f1061178d576101008083540402835291602001916117b8565b820191906000526020600020905b81548152906001019060200180831161179b57829003601f168201915b505050505081526020016002820154815260200160038201548152602001600482015481526020016005820180548060200260200160405190810160405280929190818152602001828054801561186457602002820191906000526020600020905b8160009054906101000a900473ffffffffffffffffffffffffffffffffffffffff1673ffffffffffffffffffffffffffffffffffffffff168152602001906001019080831161181a575b505050505081526020016006820160009054906101000a900473ffffffffffffffffffffffffffffffffffffffff1673ffffffffffffffffffffffffffffffffffffffff1673ffffffffffffffffffffffffffffffffffffffff1681526020016007820160009054906101000a900473ffffffffffffffffffffffffffffffffffffffff1673ffffffffffffffffffffffffffffffffffffffff1673ffffffffffffffffffffffffffffffffffffffff168152505082828151811061192c5761192b613bbb565b5b60200260200101819052505b808060010191505061160d565b50809250505090565b60008073ffffffffffffffffffffffffffffffffffffffff168273ffffffffffffffffffffffffffffffffffffffff16036119c15760006040517f89c62b640000000000000000000000000000000000000000000000000000000081526004016119b89190613284565b60405180910390fd5b600360008373ffffffffffffffffffffffffffffffffffffffff1673ffffffffffffffffffffffffffffffffffffffff168152602001908152602001600020549050919050565b6001600760008381526020019081526020016000206003016000828254611a2f9190613e05565b9250508190555050565b606060018054611a4890613b8a565b80601f0160208091040260200160405190810160405280929190818152602001828054611a7490613b8a565b8015611ac15780601f10611a9657610100808354040283529160200191611ac1565b820191906000526020600020905b815481529060010190602001808311611aa457829003601f168201915b5050505050905090565b611add611ad6611e85565b8383612656565b5050565b611aec848484610aa3565b611b00611af7611e85565b858585856127c5565b50505050565b6060611b1182611dc0565b506000600660008481526020019081526020016000208054611b3290613b8a565b80601f0160208091040260200160405190810160405280929190818152602001828054611b5e90613b8a565b8015611bab5780601f10611b8057610100808354040283529160200191611bab565b820191906000526020600020905b815481529060010190602001808311611b8e57829003601f168201915b505050505090506000611bbc612976565b90506000815103611bd1578192505050611c14565b600082511115611c06578082604051602001611bee929190613e75565b60405160208183030381529060405292505050611c14565b611c0f8461298d565b925050505b919050565b6001600760008381526020019081526020016000206003016000828254611c409190613e99565b9250508190555050565b6000600560008473ffffffffffffffffffffffffffffffffffffffff1673ffffffffffffffffffffffffffffffffffffffff16815260200190815260200160002060008373ffffffffffffffffffffffffffffffffffffffff1673ffffffffffffffffffffffffffffffffffffffff16815260200190815260200160002060009054906101000a900460ff16905092915050565b60007f80ac58cd000000000000000000000000000000000000000000000000000000007bffffffffffffffffffffffffffffffffffffffffffffffffffffffff1916827bffffffffffffffffffffffffffffffffffffffffffffffffffffffff19161480611da957507f5b5e139f000000000000000000000000000000000000000000000000000000007bffffffffffffffffffffffffffffffffffffffffffffffffffffffff1916827bffffffffffffffffffffffffffffffffffffffffffffffffffffffff1916145b80611db95750611db8826129f6565b5b9050919050565b600080611dcc83612a60565b9050600073ffffffffffffffffffffffffffffffffffffffff168173ffffffffffffffffffffffffffffffffffffffff1603611e3f57826040517f7e273289000000000000000000000000000000000000000000000000000000008152600401611e369190613823565b60405180910390fd5b80915050919050565b60006004600083815260200190815260200160002060009054906101000a900473ffffffffffffffffffffffffffffffffffffffff169050919050565b600033905090565b611e9a8383836001612a9d565b505050565b600080611eab84612a60565b9050600073ffffffffffffffffffffffffffffffffffffffff168373ffffffffffffffffffffffffffffffffffffffff1614611eed57611eec818486612c62565b5b600073ffffffffffffffffffffffffffffffffffffffff168173ffffffffffffffffffffffffffffffffffffffff1614611f7e57611f2f600085600080612a9d565b6001600360008373ffffffffffffffffffffffffffffffffffffffff1673ffffffffffffffffffffffffffffffffffffffff168152602001908152602001600020600082825403925050819055505b600073ffffffffffffffffffffffffffffffffffffffff168573ffffffffffffffffffffffffffffffffffffffff1614612001576001600360008773ffffffffffffffffffffffffffffffffffffffff1673ffffffffffffffffffffffffffffffffffffffff168152602001908152602001600020600082825401925050819055505b846002600086815260200190815260200160002060006101000a81548173ffffffffffffffffffffffffffffffffffffffff021916908373ffffffffffffffffffffffffffffffffffffffff160217905550838573ffffffffffffffffffffffffffffffffffffffff168273ffffffffffffffffffffffffffffffffffffffff167fddf252ad1be2c89b69c2b068fc378daa952ba7f163c4a11628f55a4df523b3ef60405160405180910390a4809150509392505050565b600073ffffffffffffffffffffffffffffffffffffffff168273ffffffffffffffffffffffffffffffffffffffff160361212b5760006040517f64a0ae920000000000000000000000000000000000000000000000000000000081526004016121229190613284565b60405180910390fd5b600061213983836000611e9f565b9050600073ffffffffffffffffffffffffffffffffffffffff168173ffffffffffffffffffffffffffffffffffffffff16146121ad5760006040517f73c6ac6e0000000000000000000000000000000000000000000000000000000081526004016121a49190613284565b60405180910390fd5b505050565b806006600084815260200190815260200160002090816121d29190614079565b507ff8e1a15aba9398e019f0b49df1a4fde98ee17ae345cb5f6b5e2c27f5033e8ce7826040516122029190613823565b60405180910390a15050565b826007600085815260200190815260200160002060020181905550336007600085815260200190815260200160002060070160006101000a81548173ffffffffffffffffffffffffffffffffffffffff021916908373ffffffffffffffffffffffffffffffffffffffff160217905550336007600085815260200190815260200160002060060160006101000a81548173ffffffffffffffffffffffffffffffffffffffff021916908373ffffffffffffffffffffffffffffffffffffffff16021790555060016007600085815260200190815260200160002060030181905550600060076000858152602001908152602001600020600401819055508160076000858152602001908152602001600020600001908161232e9190614079565b50806007600085815260200190815260200160002060010190816123529190614079565b5060405180602001604052803373ffffffffffffffffffffffffffffffffffffffff1673ffffffffffffffffffffffffffffffffffffffff16815250600760008581526020019081526020016000206005019060016123b2929190612fb8565b50827fe258d97e930811eec717ab40a918849f0cb01063ef4a907c9c128f963265354d838360076000888152602001908152602001600020600301546000600760008a8152602001908152602001600020600501333360405161241b9796959493929190614292565b60405180910390a2505050565b60008073ffffffffffffffffffffffffffffffffffffffff168373ffffffffffffffffffffffffffffffffffffffff16141580156124e057508273ffffffffffffffffffffffffffffffffffffffff168473ffffffffffffffffffffffffffffffffffffffff1614806124a157506124a08484611c4a565b5b806124df57508273ffffffffffffffffffffffffffffffffffffffff166124c783611e48565b73ffffffffffffffffffffffffffffffffffffffff16145b5b90509392505050565b600073ffffffffffffffffffffffffffffffffffffffff168273ffffffffffffffffffffffffffffffffffffffff160361255b5760006040517f64a0ae920000000000000000000000000000000000000000000000000000000081526004016125529190613284565b60405180910390fd5b600061256983836000611e9f565b9050600073ffffffffffffffffffffffffffffffffffffffff168173ffffffffffffffffffffffffffffffffffffffff16036125dc57816040517f7e2732890000000000000000000000000000000000000000000000000000000081526004016125d39190613823565b60405180910390fd5b8373ffffffffffffffffffffffffffffffffffffffff168173ffffffffffffffffffffffffffffffffffffffff1614612650578382826040517f64283d7b00000000000000000000000000000000000000000000000000000000815260040161264793929190613bea565b60405180910390fd5b50505050565b600073ffffffffffffffffffffffffffffffffffffffff168273ffffffffffffffffffffffffffffffffffffffff16036126c757816040517f5b08ba180000000000000000000000000000000000000000000000000000000081526004016126be9190613284565b60405180910390fd5b80600560008573ffffffffffffffffffffffffffffffffffffffff1673ffffffffffffffffffffffffffffffffffffffff16815260200190815260200160002060008473ffffffffffffffffffffffffffffffffffffffff1673ffffffffffffffffffffffffffffffffffffffff16815260200190815260200160002060006101000a81548160ff0219169083151502179055508173ffffffffffffffffffffffffffffffffffffffff168373ffffffffffffffffffffffffffffffffffffffff167f17307eab39ab6107e8899845ad3d59bd9653f200f220920489ca2b5937696c31836040516127b89190613113565b60405180910390a3505050565b60008373ffffffffffffffffffffffffffffffffffffffff163b111561296f578273ffffffffffffffffffffffffffffffffffffffff1663150b7a02868685856040518563ffffffff1660e01b8152600401612824949392919061436b565b6020604051808303816000875af192505050801561286057506040513d601f19601f8201168201806040525081019061285d91906143cc565b60015b6128e4573d8060008114612890576040519150601f19603f3d011682016040523d82523d6000602084013e612895565b606091505b5060008151036128dc57836040517f64a0ae920000000000000000000000000000000000000000000000000000000081526004016128d39190613284565b60405180910390fd5b805181602001fd5b63150b7a0260e01b7bffffffffffffffffffffffffffffffffffffffffffffffffffffffff1916817bffffffffffffffffffffffffffffffffffffffffffffffffffffffff19161461296d57836040517f64a0ae920000000000000000000000000000000000000000000000000000000081526004016129649190613284565b60405180910390fd5b505b5050505050565b606060405180602001604052806000815250905090565b606061299882611dc0565b5060006129a3612976565b905060008151116129c357604051806020016040528060008152506129ee565b806129cd84612d26565b6040516020016129de929190613e75565b6040516020818303038152906040525b915050919050565b60007f01ffc9a7000000000000000000000000000000000000000000000000000000007bffffffffffffffffffffffffffffffffffffffffffffffffffffffff1916827bffffffffffffffffffffffffffffffffffffffffffffffffffffffff1916149050919050565b60006002600083815260200190815260200160002060009054906101000a900473ffffffffffffffffffffffffffffffffffffffff169050919050565b8080612ad65750600073ffffffffffffffffffffffffffffffffffffffff168273ffffffffffffffffffffffffffffffffffffffff1614155b15612c0a576000612ae684611dc0565b9050600073ffffffffffffffffffffffffffffffffffffffff168373ffffffffffffffffffffffffffffffffffffffff1614158015612b5157508273ffffffffffffffffffffffffffffffffffffffff168173ffffffffffffffffffffffffffffffffffffffff1614155b8015612b645750612b628184611c4a565b155b15612ba657826040517fa9fbf51f000000000000000000000000000000000000000000000000000000008152600401612b9d9190613284565b60405180910390fd5b8115612c0857838573ffffffffffffffffffffffffffffffffffffffff168273ffffffffffffffffffffffffffffffffffffffff167f8c5be1e5ebec7d5bd14f71427d1e84f3dd0314c0f7b2291e5b200ac8c7c3b92560405160405180910390a45b505b836004600085815260200190815260200160002060006101000a81548173ffffffffffffffffffffffffffffffffffffffff021916908373ffffffffffffffffffffffffffffffffffffffff16021790555050505050565b612c6d838383612428565b612d2157600073ffffffffffffffffffffffffffffffffffffffff168373ffffffffffffffffffffffffffffffffffffffff1603612ce257806040517f7e273289000000000000000000000000000000000000000000000000000000008152600401612cd99190613823565b60405180910390fd5b81816040517f177e802f000000000000000000000000000000000000000000000000000000008152600401612d189291906143f9565b60405180910390fd5b505050565b606060006001612d3584612df4565b01905060008167ffffffffffffffff811115612d5457612d53613642565b5b6040519080825280601f01601f191660200182016040528015612d865781602001600182028036833780820191505090505b509050600082602001820190505b600115612de9578080600190039150507f3031323334353637383961626364656600000000000000000000000000000000600a86061a8153600a8581612ddd57612ddc614422565b5b04945060008503612d94575b819350505050919050565b600080600090507a184f03e93ff9f4daa797ed6e38ed64bf6a1f0100000000000000008310612e52577a184f03e93ff9f4daa797ed6e38ed64bf6a1f0100000000000000008381612e4857612e47614422565b5b0492506040810190505b6d04ee2d6d415b85acef81000000008310612e8f576d04ee2d6d415b85acef81000000008381612e8557612e84614422565b5b0492506020810190505b662386f26fc100008310612ebe57662386f26fc100008381612eb457612eb3614422565b5b0492506010810190505b6305f5e1008310612ee7576305f5e1008381612edd57612edc614422565b5b0492506008810190505b6127108310612f0c576127108381612f0257612f01614422565b5b0492506004810190505b60648310612f2f5760648381612f2557612f24614422565b5b0492506002810190505b600a8310612f3e576001810190505b80915050919050565b604051806101000160405280606081526020016060815260200160008152602001600081526020016000815260200160608152602001600073ffffffffffffffffffffffffffffffffffffffff168152602001600073ffffffffffffffffffffffffffffffffffffffff1681525090565b828054828255906000526020600020908101928215613031579160200282015b828111156130305782518260006101000a81548173ffffffffffffffffffffffffffffffffffffffff021916908373ffffffffffffffffffffffffffffffffffffffff16021790555091602001919060010190612fd8565b5b50905061303e9190613042565b5090565b5b8082111561305b576000816000905550600101613043565b5090565b6000604051905090565b600080fd5b600080fd5b60007fffffffff0000000000000000000000000000000000000000000000000000000082169050919050565b6130a881613073565b81146130b357600080fd5b50565b6000813590506130c58161309f565b92915050565b6000602082840312156130e1576130e0613069565b5b60006130ef848285016130b6565b91505092915050565b60008115159050919050565b61310d816130f8565b82525050565b60006020820190506131286000830184613104565b92915050565b600081519050919050565b600082825260208201905092915050565b60005b8381101561316857808201518184015260208101905061314d565b60008484015250505050565b6000601f19601f8301169050919050565b60006131908261312e565b61319a8185613139565b93506131aa81856020860161314a565b6131b381613174565b840191505092915050565b600060208201905081810360008301526131d88184613185565b905092915050565b6000819050919050565b6131f3816131e0565b81146131fe57600080fd5b50565b600081359050613210816131ea565b92915050565b60006020828403121561322c5761322b613069565b5b600061323a84828501613201565b91505092915050565b600073ffffffffffffffffffffffffffffffffffffffff82169050919050565b600061326e82613243565b9050919050565b61327e81613263565b82525050565b60006020820190506132996000830184613275565b92915050565b600081519050919050565b600082825260208201905092915050565b6000819050602082019050919050565b600082825260208201905092915050565b60006132e78261312e565b6132f181856132cb565b935061330181856020860161314a565b61330a81613174565b840191505092915050565b61331e816131e0565b82525050565b600081519050919050565b600082825260208201905092915050565b6000819050602082019050919050565b61335981613263565b82525050565b600061336b8383613350565b60208301905092915050565b6000602082019050919050565b600061338f82613324565b613399818561332f565b93506133a483613340565b8060005b838110156133d55781516133bc888261335f565b97506133c783613377565b9250506001810190506133a8565b5085935050505092915050565b60006133ed82613243565b9050919050565b6133fd816133e2565b82525050565b600061010083016000830151848203600086015261342182826132dc565b9150506020830151848203602086015261343b82826132dc565b91505060408301516134506040860182613315565b5060608301516134636060860182613315565b5060808301516134766080860182613315565b5060a083015184820360a086015261348e8282613384565b91505060c08301516134a360c08601826133f4565b5060e08301516134b660e08601826133f4565b508091505092915050565b60006134cd8383613403565b905092915050565b6000602082019050919050565b60006134ed8261329f565b6134f781856132aa565b935083602082028501613509856132bb565b8060005b85811015613545578484038952815161352685826134c1565b9450613531836134d5565b925060208a0199505060018101905061350d565b50829750879550505050505092915050565b6000602082019050818103600083015261357181846134e2565b905092915050565b61358281613263565b811461358d57600080fd5b50565b60008135905061359f81613579565b92915050565b600080604083850312156135bc576135bb613069565b5b60006135ca85828601613590565b92505060206135db85828601613201565b9150509250929050565b6000806000606084860312156135fe576135fd613069565b5b600061360c86828701613590565b935050602061361d86828701613590565b925050604061362e86828701613201565b9150509250925092565b600080fd5b600080fd5b7f4e487b7100000000000000000000000000000000000000000000000000000000600052604160045260246000fd5b61367a82613174565b810181811067ffffffffffffffff8211171561369957613698613642565b5b80604052505050565b60006136ac61305f565b90506136b88282613671565b919050565b600067ffffffffffffffff8211156136d8576136d7613642565b5b6136e182613174565b9050602081019050919050565b82818337600083830152505050565b600061371061370b846136bd565b6136a2565b90508281526020810184848401111561372c5761372b61363d565b5b6137378482856136ee565b509392505050565b600082601f83011261375457613753613638565b5b81356137648482602086016136fd565b91505092915050565b60008060006060848603121561378657613785613069565b5b600084013567ffffffffffffffff8111156137a4576137a361306e565b5b6137b08682870161373f565b935050602084013567ffffffffffffffff8111156137d1576137d061306e565b5b6137dd8682870161373f565b925050604084013567ffffffffffffffff8111156137fe576137fd61306e565b5b61380a8682870161373f565b9150509250925092565b61381d816131e0565b82525050565b60006020820190506138386000830184613814565b92915050565b6000806040838503121561385557613854613069565b5b600061386385828601613201565b925050602061387485828601613201565b9150509250929050565b600061010083016000830151848203600086015261389c82826132dc565b915050602083015184820360208601526138b682826132dc565b91505060408301516138cb6040860182613315565b5060608301516138de6060860182613315565b5060808301516138f16080860182613315565b5060a083015184820360a08601526139098282613384565b91505060c083015161391e60c08601826133f4565b5060e083015161393160e08601826133f4565b508091505092915050565b60006020820190508181036000830152613956818461387e565b905092915050565b60006020828403121561397457613973613069565b5b600061398284828501613590565b91505092915050565b613994816130f8565b811461399f57600080fd5b50565b6000813590506139b18161398b565b92915050565b600080604083850312156139ce576139cd613069565b5b60006139dc85828601613590565b92505060206139ed858286016139a2565b9150509250929050565b600067ffffffffffffffff821115613a1257613a11613642565b5b613a1b82613174565b9050602081019050919050565b6000613a3b613a36846139f7565b6136a2565b905082815260208101848484011115613a5757613a5661363d565b5b613a628482856136ee565b509392505050565b600082601f830112613a7f57613a7e613638565b5b8135613a8f848260208601613a28565b91505092915050565b60008060008060808587031215613ab257613ab1613069565b5b6000613ac087828801613590565b9450506020613ad187828801613590565b9350506040613ae287828801613201565b925050606085013567ffffffffffffffff811115613b0357613b0261306e565b5b613b0f87828801613a6a565b91505092959194509250565b60008060408385031215613b3257613b31613069565b5b6000613b4085828601613590565b9250506020613b5185828601613590565b9150509250929050565b7f4e487b7100000000000000000000000000000000000000000000000000000000600052602260045260246000fd5b60006002820490506001821680613ba257607f821691505b602082108103613bb557613bb4613b5b565b5b50919050565b7f4e487b7100000000000000000000000000000000000000000000000000000000600052603260045260246000fd5b6000606082019050613bff6000830186613275565b613c0c6020830185613814565b613c196040830184613275565b949350505050565b7f4e465420556e617661696c61626c650000000000000000000000000000000000600082015250565b6000613c57600f83613139565b9150613c6282613c21565b602082019050919050565b60006020820190508181036000830152613c8681613c4a565b9050919050565b7f496e73756666696369656e742066756e647320746f20627579204e4654000000600082015250565b6000613cc3601d83613139565b9150613cce82613c8d565b602082019050919050565b60006020820190508181036000830152613cf281613cb6565b9050919050565b7f4e487b7100000000000000000000000000000000000000000000000000000000600052601160045260246000fd5b6000613d33826131e0565b915060008203613d4657613d45613cf9565b5b600182039050919050565b6000613d5c826131e0565b91507fffffffffffffffffffffffffffffffffffffffffffffffffffffffffffffffff8203613d8e57613d8d613cf9565b5b600182019050919050565b7f4f6e6c79204e4654206f776e65722063616e20706572666f726d207468697300600082015250565b6000613dcf601f83613139565b9150613dda82613d99565b602082019050919050565b60006020820190508181036000830152613dfe81613dc2565b9050919050565b6000613e10826131e0565b9150613e1b836131e0565b9250828203905081811115613e3357613e32613cf9565b5b92915050565b600081905092915050565b6000613e4f8261312e565b613e598185613e39565b9350613e6981856020860161314a565b80840191505092915050565b6000613e818285613e44565b9150613e8d8284613e44565b91508190509392505050565b6000613ea4826131e0565b9150613eaf836131e0565b9250828201905080821115613ec757613ec6613cf9565b5b92915050565b60008190508160005260206000209050919050565b60006020601f8301049050919050565b600082821b905092915050565b600060088302613f2f7fffffffffffffffffffffffffffffffffffffffffffffffffffffffffffffffff82613ef2565b613f398683613ef2565b95508019841693508086168417925050509392505050565b6000819050919050565b6000613f76613f71613f6c846131e0565b613f51565b6131e0565b9050919050565b6000819050919050565b613f9083613f5b565b613fa4613f9c82613f7d565b848454613eff565b825550505050565b600090565b613fb9613fac565b613fc4818484613f87565b505050565b5b81811015613fe857613fdd600082613fb1565b600181019050613fca565b5050565b601f82111561402d57613ffe81613ecd565b61400784613ee2565b81016020851015614016578190505b61402a61402285613ee2565b830182613fc9565b50505b505050565b600082821c905092915050565b600061405060001984600802614032565b1980831691505092915050565b6000614069838361403f565b9150826002028217905092915050565b6140828261312e565b67ffffffffffffffff81111561409b5761409a613642565b5b6140a58254613b8a565b6140b0828285613fec565b600060209050601f8311600181146140e357600084156140d1578287015190505b6140db858261405d565b865550614143565b601f1984166140f186613ecd565b60005b82811015614119578489015182556001820191506020850194506020810190506140f4565b868310156141365784890151614132601f89168261403f565b8355505b6001600288020188555050505b505050505050565b6000819050919050565b600061417061416b6141668461414b565b613f51565b6131e0565b9050919050565b61418081614155565b82525050565b600081549050919050565b600082825260208201905092915050565b60008190508160005260206000209050919050565b60008160001c9050919050565b600073ffffffffffffffffffffffffffffffffffffffff82169050919050565b60006141f76141f2836141b7565b6141c4565b9050919050565b600061420a82546141e4565b9050919050565b6000600182019050919050565b600061422982614186565b6142338185614191565b935061423e836141a2565b8060005b8381101561427657614253826141fe565b61425d888261335f565b975061426883614211565b925050600181019050614242565b5085935050505092915050565b61428c816133e2565b82525050565b600060e08201905081810360008301526142ac818a613185565b905081810360208301526142c08189613185565b90506142cf6040830188613814565b6142dc6060830187614177565b81810360808301526142ee818661421e565b90506142fd60a0830185614283565b61430a60c0830184614283565b98975050505050505050565b600081519050919050565b600082825260208201905092915050565b600061433d82614316565b6143478185614321565b935061435781856020860161314a565b61436081613174565b840191505092915050565b60006080820190506143806000830187613275565b61438d6020830186613275565b61439a6040830185613814565b81810360608301526143ac8184614332565b905095945050505050565b6000815190506143c68161309f565b92915050565b6000602082840312156143e2576143e1613069565b5b60006143f0848285016143b7565b91505092915050565b600060408201905061440e6000830185613275565b61441b6020830184613814565b9392505050565b7f4e487b7100000000000000000000000000000000000000000000000000000000600052601260045260246000fdfea264697066735822122055fe873512002ec80a3d19e3979b20ce6c9557245d2860989cfc7cb9991b3cb864736f6c634300081c0033",
    "linkReferences": {},
    "deployedLinkReferences": {}
}