{
    "_format": "hh-sol-artifact-1",
    "contractName": "Profile",
    "sourceName": "contracts/profile.sol",
    "abi": [
        {
            "anonymous": false,
            "inputs": [
                {
                    "indexed": true,
                    "internalType": "address",
                    "name": "follower",
                    "type": "address"
                },
                {
                    "indexed": true,
                    "internalType": "address",
                    "name": "followed",
                    "type": "address"
                }
            ],
            "name": "Followed",
            "type": "event"
        },
        {
            "anonymous": false,
            "inputs": [
                {
                    "indexed": true,
                    "internalType": "address",
                    "name": "user",
                    "type": "address"
                }
            ],
            "name": "ProfileCreated",
            "type": "event"
        },
        {
            "anonymous": false,
            "inputs": [
                {
                    "indexed": true,
                    "internalType": "address",
                    "name": "follower",
                    "type": "address"
                },
                {
                    "indexed": true,
                    "internalType": "address",
                    "name": "unfollowed",
                    "type": "address"
                }
            ],
            "name": "Unfollowed",
            "type": "event"
        },
        {
            "inputs": [],
            "name": "addProfile",
            "outputs": [],
            "stateMutability": "nonpayable",
            "type": "function"
        },
        {
            "inputs": [
                {
                    "internalType": "address",
                    "name": "_account",
                    "type": "address"
                }
            ],
            "name": "followProfile",
            "outputs": [],
            "stateMutability": "nonpayable",
            "type": "function"
        },
        {
            "inputs": [],
            "name": "getNumberOfUsers",
            "outputs": [
                {
                    "internalType": "uint256",
                    "name": "",
                    "type": "uint256"
                }
            ],
            "stateMutability": "view",
            "type": "function"
        },
        {
            "inputs": [],
            "name": "getProfile",
            "outputs": [
                {
                    "components": [
                        {
                            "internalType": "address",
                            "name": "id",
                            "type": "address"
                        },
                        {
                            "internalType": "address[]",
                            "name": "followers",
                            "type": "address[]"
                        },
                        {
                            "internalType": "address[]",
                            "name": "following",
                            "type": "address[]"
                        }
                    ],
                    "internalType": "struct Profile.profileModel",
                    "name": "",
                    "type": "tuple"
                }
            ],
            "stateMutability": "view",
            "type": "function"
        },
        {
            "inputs": [
                {
                    "internalType": "address",
                    "name": "",
                    "type": "address"
                }
            ],
            "name": "profiles",
            "outputs": [
                {
                    "internalType": "address",
                    "name": "id",
                    "type": "address"
                }
            ],
            "stateMutability": "view",
            "type": "function"
        },
        {
            "inputs": [
                {
                    "internalType": "address",
                    "name": "_account",
                    "type": "address"
                }
            ],
            "name": "unfollowProfile",
            "outputs": [],
            "stateMutability": "nonpayable",
            "type": "function"
        }
    ],
    "bytecode": "0x6080604052348015600f57600080fd5b50610f278061001f6000396000f3fe608060405234801561001057600080fd5b50600436106100625760003560e01c80631c62094c146100675780633725f2d3146100715780634d0092881461008d578063bbe15627146100ab578063c7e7709d146100db578063d6afc9b1146100f7575b600080fd5b61006f610115565b005b61008b60048036038101906100869190610b3d565b6102c3565b005b610095610425565b6040516100a29190610b83565b60405180910390f35b6100c560048036038101906100c09190610b3d565b610434565b6040516100d29190610bad565b60405180910390f35b6100f560048036038101906100f09190610b3d565b610472565b005b6100ff610684565b60405161010c9190610cdd565b60405180910390f35b600073ffffffffffffffffffffffffffffffffffffffff16600160003373ffffffffffffffffffffffffffffffffffffffff1673ffffffffffffffffffffffffffffffffffffffff16815260200190815260200160002060000160009054906101000a900473ffffffffffffffffffffffffffffffffffffffff1673ffffffffffffffffffffffffffffffffffffffff16146101e6576040517f08c379a00000000000000000000000000000000000000000000000000000000081526004016101dd90610d5c565b60405180910390fd5b33600160003373ffffffffffffffffffffffffffffffffffffffff1673ffffffffffffffffffffffffffffffffffffffff16815260200190815260200160002060000160006101000a81548173ffffffffffffffffffffffffffffffffffffffff021916908373ffffffffffffffffffffffffffffffffffffffff16021790555060008081548092919061027990610dab565b91905055503373ffffffffffffffffffffffffffffffffffffffff167ff10ec97e920cde75887622583772c637595a40b1f7777c18e51ea36cd127475c60405160405180910390a2565b600073ffffffffffffffffffffffffffffffffffffffff168173ffffffffffffffffffffffffffffffffffffffff1603610332576040517f08c379a000000000000000000000000000000000000000000000000000000000815260040161032990610e3f565b60405180910390fd5b61037d600160003373ffffffffffffffffffffffffffffffffffffffff1673ffffffffffffffffffffffffffffffffffffffff1681526020019081526020016000206002018261091e565b6103c8600160008373ffffffffffffffffffffffffffffffffffffffff1673ffffffffffffffffffffffffffffffffffffffff1681526020019081526020016000206001013361091e565b8073ffffffffffffffffffffffffffffffffffffffff163373ffffffffffffffffffffffffffffffffffffffff167f25b48012798806863072289354ed0b3849b73152482d9c6694e5cbb35f38d5e360405160405180910390a350565b60008060005490508091505090565b60016020528060005260406000206000915090508060000160009054906101000a900473ffffffffffffffffffffffffffffffffffffffff16905081565b600073ffffffffffffffffffffffffffffffffffffffff168173ffffffffffffffffffffffffffffffffffffffff16036104e1576040517f08c379a00000000000000000000000000000000000000000000000000000000081526004016104d890610e3f565b60405180910390fd5b600160003373ffffffffffffffffffffffffffffffffffffffff1673ffffffffffffffffffffffffffffffffffffffff168152602001908152602001600020600201819080600181540180825580915050600190039060005260206000200160009091909190916101000a81548173ffffffffffffffffffffffffffffffffffffffff021916908373ffffffffffffffffffffffffffffffffffffffff160217905550600160008273ffffffffffffffffffffffffffffffffffffffff1673ffffffffffffffffffffffffffffffffffffffff168152602001908152602001600020600101339080600181540180825580915050600190039060005260206000200160009091909190916101000a81548173ffffffffffffffffffffffffffffffffffffffff021916908373ffffffffffffffffffffffffffffffffffffffff1602179055508073ffffffffffffffffffffffffffffffffffffffff163373ffffffffffffffffffffffffffffffffffffffff167f6178e95c138f06036cdc07a49ed6a3d23008969fa143baeceb037ebae22e8d1460405160405180910390a350565b61068c610aa3565b600073ffffffffffffffffffffffffffffffffffffffff16600160003373ffffffffffffffffffffffffffffffffffffffff1673ffffffffffffffffffffffffffffffffffffffff16815260200190815260200160002060000160009054906101000a900473ffffffffffffffffffffffffffffffffffffffff1673ffffffffffffffffffffffffffffffffffffffff160361075d576040517f08c379a000000000000000000000000000000000000000000000000000000000815260040161075490610e3f565b60405180910390fd5b600160003373ffffffffffffffffffffffffffffffffffffffff1673ffffffffffffffffffffffffffffffffffffffff1681526020019081526020016000206040518060600160405290816000820160009054906101000a900473ffffffffffffffffffffffffffffffffffffffff1673ffffffffffffffffffffffffffffffffffffffff1673ffffffffffffffffffffffffffffffffffffffff1681526020016001820180548060200260200160405190810160405280929190818152602001828054801561088257602002820191906000526020600020905b8160009054906101000a900473ffffffffffffffffffffffffffffffffffffffff1673ffffffffffffffffffffffffffffffffffffffff1681526020019060010190808311610838575b505050505081526020016002820180548060200260200160405190810160405280929190818152602001828054801561091057602002820191906000526020600020905b8160009054906101000a900473ffffffffffffffffffffffffffffffffffffffff1673ffffffffffffffffffffffffffffffffffffffff16815260200190600101908083116108c6575b505050505081525050905090565b60005b8280549050811015610a9e578173ffffffffffffffffffffffffffffffffffffffff1683828154811061095757610956610e5f565b5b9060005260206000200160009054906101000a900473ffffffffffffffffffffffffffffffffffffffff1673ffffffffffffffffffffffffffffffffffffffff1603610a915782600184805490506109af9190610e8e565b815481106109c0576109bf610e5f565b5b9060005260206000200160009054906101000a900473ffffffffffffffffffffffffffffffffffffffff168382815481106109fe576109fd610e5f565b5b9060005260206000200160006101000a81548173ffffffffffffffffffffffffffffffffffffffff021916908373ffffffffffffffffffffffffffffffffffffffff16021790555082805480610a5757610a56610ec2565b5b6001900381819060005260206000200160006101000a81549073ffffffffffffffffffffffffffffffffffffffff02191690559055610a9e565b8080600101915050610921565b505050565b6040518060600160405280600073ffffffffffffffffffffffffffffffffffffffff16815260200160608152602001606081525090565b600080fd5b600073ffffffffffffffffffffffffffffffffffffffff82169050919050565b6000610b0a82610adf565b9050919050565b610b1a81610aff565b8114610b2557600080fd5b50565b600081359050610b3781610b11565b92915050565b600060208284031215610b5357610b52610ada565b5b6000610b6184828501610b28565b91505092915050565b6000819050919050565b610b7d81610b6a565b82525050565b6000602082019050610b986000830184610b74565b92915050565b610ba781610aff565b82525050565b6000602082019050610bc26000830184610b9e565b92915050565b610bd181610aff565b82525050565b600081519050919050565b600082825260208201905092915050565b6000819050602082019050919050565b6000610c0f8383610bc8565b60208301905092915050565b6000602082019050919050565b6000610c3382610bd7565b610c3d8185610be2565b9350610c4883610bf3565b8060005b83811015610c79578151610c608882610c03565b9750610c6b83610c1b565b925050600181019050610c4c565b5085935050505092915050565b6000606083016000830151610c9e6000860182610bc8565b5060208301518482036020860152610cb68282610c28565b91505060408301518482036040860152610cd08282610c28565b9150508091505092915050565b60006020820190508181036000830152610cf78184610c86565b905092915050565b600082825260208201905092915050565b7f557365722070726f66696c6520616c7265616479206578697374732e00000000600082015250565b6000610d46601c83610cff565b9150610d5182610d10565b602082019050919050565b60006020820190508181036000830152610d7581610d39565b9050919050565b7f4e487b7100000000000000000000000000000000000000000000000000000000600052601160045260246000fd5b6000610db682610b6a565b91507fffffffffffffffffffffffffffffffffffffffffffffffffffffffffffffffff8203610de857610de7610d7c565b5b600182019050919050565b7f50726f66696c6520646f6573206e6f742065786973742e000000000000000000600082015250565b6000610e29601783610cff565b9150610e3482610df3565b602082019050919050565b60006020820190508181036000830152610e5881610e1c565b9050919050565b7f4e487b7100000000000000000000000000000000000000000000000000000000600052603260045260246000fd5b6000610e9982610b6a565b9150610ea483610b6a565b9250828203905081811115610ebc57610ebb610d7c565b5b92915050565b7f4e487b7100000000000000000000000000000000000000000000000000000000600052603160045260246000fdfea26469706673582212206fd52881f14f603ab617fe03cd848a64be0085d9cf9b4c04bacb10327fd2089e64736f6c634300081c0033",
    "linkReferences": {},
    "deployedLinkReferences": {}
}