{
  "_format": "hh-sol-artifact-1",
  "contractName": "Profile",
  "sourceName": "contracts/profile.sol",
  "abi": [
    {
      "anonymous": false,
      "inputs": [
        {
          "indexed": true,
          "internalType": "address",
          "name": "follower",
          "type": "address"
        },
        {
          "indexed": true,
          "internalType": "address",
          "name": "followed",
          "type": "address"
        }
      ],
      "name": "Followed",
      "type": "event"
    },
    {
      "anonymous": false,
      "inputs": [
        {
          "indexed": true,
          "internalType": "address",
          "name": "user",
          "type": "address"
        },
        {
          "indexed": false,
          "internalType": "string",
          "name": "name",
          "type": "string"
        },
        {
          "indexed": false,
          "internalType": "string",
          "name": "desc",
          "type": "string"
        }
      ],
      "name": "ProfileCreated",
      "type": "event"
    },
    {
      "anonymous": false,
      "inputs": [
        {
          "indexed": true,
          "internalType": "address",
          "name": "follower",
          "type": "address"
        },
        {
          "indexed": true,
          "internalType": "address",
          "name": "unfollowed",
          "type": "address"
        }
      ],
      "name": "Unfollowed",
      "type": "event"
    },
    {
      "inputs": [
        {
          "internalType": "string",
          "name": "name",
          "type": "string"
        },
        {
          "internalType": "string",
          "name": "desc",
          "type": "string"
        }
      ],
      "name": "addProfile",
      "outputs": [],
      "stateMutability": "nonpayable",
      "type": "function"
    },
    {
      "inputs": [
        {
          "internalType": "address",
          "name": "_account",
          "type": "address"
        }
      ],
      "name": "followProfile",
      "outputs": [],
      "stateMutability": "nonpayable",
      "type": "function"
    },
    {
      "inputs": [],
      "name": "getAllUsers",
      "outputs": [
        {
          "components": [
            {
              "internalType": "address",
              "name": "id",
              "type": "address"
            },
            {
              "internalType": "string",
              "name": "name",
              "type": "string"
            },
            {
              "internalType": "string",
              "name": "description",
              "type": "string"
            },
            {
              "internalType": "address[]",
              "name": "followers",
              "type": "address[]"
            },
            {
              "internalType": "address[]",
              "name": "following",
              "type": "address[]"
            }
          ],
          "internalType": "struct Profile.profileModel[]",
          "name": "",
          "type": "tuple[]"
        }
      ],
      "stateMutability": "view",
      "type": "function"
    },
    {
      "inputs": [],
      "name": "getNumberOfUsers",
      "outputs": [
        {
          "internalType": "uint256",
          "name": "",
          "type": "uint256"
        }
      ],
      "stateMutability": "view",
      "type": "function"
    },
    {
      "inputs": [],
      "name": "getProfile",
      "outputs": [
        {
          "components": [
            {
              "internalType": "address",
              "name": "id",
              "type": "address"
            },
            {
              "internalType": "string",
              "name": "name",
              "type": "string"
            },
            {
              "internalType": "string",
              "name": "description",
              "type": "string"
            },
            {
              "internalType": "address[]",
              "name": "followers",
              "type": "address[]"
            },
            {
              "internalType": "address[]",
              "name": "following",
              "type": "address[]"
            }
          ],
          "internalType": "struct Profile.profileModel",
          "name": "",
          "type": "tuple"
        }
      ],
      "stateMutability": "view",
      "type": "function"
    },
    {
      "inputs": [
        {
          "internalType": "address",
          "name": "",
          "type": "address"
        }
      ],
      "name": "profiles",
      "outputs": [
        {
          "internalType": "address",
          "name": "id",
          "type": "address"
        },
        {
          "internalType": "string",
          "name": "name",
          "type": "string"
        },
        {
          "internalType": "string",
          "name": "description",
          "type": "string"
        }
      ],
      "stateMutability": "view",
      "type": "function"
    },
    {
      "inputs": [
        {
          "internalType": "address[]",
          "name": "knownAddresses",
          "type": "address[]"
        }
      ],
      "name": "recoverExistingProfiles",
      "outputs": [],
      "stateMutability": "nonpayable",
      "type": "function"
    },
    {
      "inputs": [
        {
          "internalType": "address",
          "name": "_account",
          "type": "address"
        }
      ],
      "name": "unfollowProfile",
      "outputs": [],
      "stateMutability": "nonpayable",
      "type": "function"
    }
  ],
  "bytecode": "0x6080604052348015600f57600080fd5b506121708061001f6000396000f3fe608060405234801561001057600080fd5b50600436106100885760003560e01c8063c7e7709d1161005b578063c7e7709d14610115578063c942bdee14610131578063d6afc9b11461014d578063e2842d791461016b57610088565b806330c42f591461008d5780633725f2d3146100a95780634d009288146100c5578063bbe15627146100e3575b600080fd5b6100a760048036038101906100a291906115f2565b610189565b005b6100c360048036038101906100be919061163b565b6102c0565b005b6100cd610422565b6040516100da9190611681565b60405180910390f35b6100fd60048036038101906100f8919061163b565b610431565b60405161010c9392919061172a565b60405180910390f35b61012f600480360381019061012a919061163b565b61058b565b005b61014b60048036038101906101469190611824565b61079d565b005b610155610adf565b6040516101629190611a2f565b60405180910390f35b610173610e9d565b6040516101809190611b9e565b60405180910390f35b60005b81518110156102bc5760008282815181106101aa576101a9611bc0565b5b60200260200101519050600073ffffffffffffffffffffffffffffffffffffffff16600260008373ffffffffffffffffffffffffffffffffffffffff1673ffffffffffffffffffffffffffffffffffffffff16815260200190815260200160002060000160009054906101000a900473ffffffffffffffffffffffffffffffffffffffff1673ffffffffffffffffffffffffffffffffffffffff16146102ae576001819080600181540180825580915050600190039060005260206000200160009091909190916101000a81548173ffffffffffffffffffffffffffffffffffffffff021916908373ffffffffffffffffffffffffffffffffffffffff1602179055505b50808060010191505061018c565b5050565b600073ffffffffffffffffffffffffffffffffffffffff168173ffffffffffffffffffffffffffffffffffffffff160361032f576040517f08c379a000000000000000000000000000000000000000000000000000000000815260040161032690611c3b565b60405180910390fd5b61037a600260003373ffffffffffffffffffffffffffffffffffffffff1673ffffffffffffffffffffffffffffffffffffffff1681526020019081526020016000206004018261125d565b6103c5600260008373ffffffffffffffffffffffffffffffffffffffff1673ffffffffffffffffffffffffffffffffffffffff1681526020019081526020016000206003013361125d565b8073ffffffffffffffffffffffffffffffffffffffff163373ffffffffffffffffffffffffffffffffffffffff167f25b48012798806863072289354ed0b3849b73152482d9c6694e5cbb35f38d5e360405160405180910390a350565b60008060005490508091505090565b60026020528060005260406000206000915090508060000160009054906101000a900473ffffffffffffffffffffffffffffffffffffffff169080600101805461047a90611c8a565b80601f01602080910402602001604051908101604052809291908181526020018280546104a690611c8a565b80156104f35780601f106104c8576101008083540402835291602001916104f3565b820191906000526020600020905b8154815290600101906020018083116104d657829003601f168201915b50505050509080600201805461050890611c8a565b80601f016020809104026020016040519081016040528092919081815260200182805461053490611c8a565b80156105815780601f1061055657610100808354040283529160200191610581565b820191906000526020600020905b81548152906001019060200180831161056457829003601f168201915b5050505050905083565b600073ffffffffffffffffffffffffffffffffffffffff168173ffffffffffffffffffffffffffffffffffffffff16036105fa576040517f08c379a00000000000000000000000000000000000000000000000000000000081526004016105f190611c3b565b60405180910390fd5b600260003373ffffffffffffffffffffffffffffffffffffffff1673ffffffffffffffffffffffffffffffffffffffff168152602001908152602001600020600401819080600181540180825580915050600190039060005260206000200160009091909190916101000a81548173ffffffffffffffffffffffffffffffffffffffff021916908373ffffffffffffffffffffffffffffffffffffffff160217905550600260008273ffffffffffffffffffffffffffffffffffffffff1673ffffffffffffffffffffffffffffffffffffffff168152602001908152602001600020600301339080600181540180825580915050600190039060005260206000200160009091909190916101000a81548173ffffffffffffffffffffffffffffffffffffffff021916908373ffffffffffffffffffffffffffffffffffffffff1602179055508073ffffffffffffffffffffffffffffffffffffffff163373ffffffffffffffffffffffffffffffffffffffff167f6178e95c138f06036cdc07a49ed6a3d23008969fa143baeceb037ebae22e8d1460405160405180910390a350565b600073ffffffffffffffffffffffffffffffffffffffff16600260003373ffffffffffffffffffffffffffffffffffffffff1673ffffffffffffffffffffffffffffffffffffffff16815260200190815260200160002060000160009054906101000a900473ffffffffffffffffffffffffffffffffffffffff1673ffffffffffffffffffffffffffffffffffffffff161461086e576040517f08c379a000000000000000000000000000000000000000000000000000000000815260040161086590611d07565b60405180910390fd5b33600260003373ffffffffffffffffffffffffffffffffffffffff1673ffffffffffffffffffffffffffffffffffffffff16815260200190815260200160002060000160006101000a81548173ffffffffffffffffffffffffffffffffffffffff021916908373ffffffffffffffffffffffffffffffffffffffff16021790555081600260003373ffffffffffffffffffffffffffffffffffffffff1673ffffffffffffffffffffffffffffffffffffffff168152602001908152602001600020600101908161093e9190611ed3565b5080600260003373ffffffffffffffffffffffffffffffffffffffff1673ffffffffffffffffffffffffffffffffffffffff168152602001908152602001600020600201908161098e9190611ed3565b506001339080600181540180825580915050600190039060005260206000200160009091909190916101000a81548173ffffffffffffffffffffffffffffffffffffffff021916908373ffffffffffffffffffffffffffffffffffffffff160217905550600080815480929190610a0490611fd4565b91905055503373ffffffffffffffffffffffffffffffffffffffff167f6b4494367229a908b0585b361e2871a21f8eb4cd852c02f55c9e06989f4bb2aa600260003373ffffffffffffffffffffffffffffffffffffffff1673ffffffffffffffffffffffffffffffffffffffff168152602001908152602001600020600101600260003373ffffffffffffffffffffffffffffffffffffffff1673ffffffffffffffffffffffffffffffffffffffff168152602001908152602001600020600201604051610ad39291906120a0565b60405180910390a25050565b610ae76113e2565b600073ffffffffffffffffffffffffffffffffffffffff16600260003373ffffffffffffffffffffffffffffffffffffffff1673ffffffffffffffffffffffffffffffffffffffff16815260200190815260200160002060000160009054906101000a900473ffffffffffffffffffffffffffffffffffffffff1673ffffffffffffffffffffffffffffffffffffffff1603610bb8576040517f08c379a0000000000000000000000000000000000000000000000000000000008152600401610baf90611c3b565b60405180910390fd5b600260003373ffffffffffffffffffffffffffffffffffffffff1673ffffffffffffffffffffffffffffffffffffffff1681526020019081526020016000206040518060a00160405290816000820160009054906101000a900473ffffffffffffffffffffffffffffffffffffffff1673ffffffffffffffffffffffffffffffffffffffff1673ffffffffffffffffffffffffffffffffffffffff168152602001600182018054610c6890611c8a565b80601f0160208091040260200160405190810160405280929190818152602001828054610c9490611c8a565b8015610ce15780601f10610cb657610100808354040283529160200191610ce1565b820191906000526020600020905b815481529060010190602001808311610cc457829003601f168201915b50505050508152602001600282018054610cfa90611c8a565b80601f0160208091040260200160405190810160405280929190818152602001828054610d2690611c8a565b8015610d735780601f10610d4857610100808354040283529160200191610d73565b820191906000526020600020905b815481529060010190602001808311610d5657829003601f168201915b5050505050815260200160038201805480602002602001604051908101604052809291908181526020018280548015610e0157602002820191906000526020600020905b8160009054906101000a900473ffffffffffffffffffffffffffffffffffffffff1673ffffffffffffffffffffffffffffffffffffffff1681526020019060010190808311610db7575b5050505050815260200160048201805480602002602001604051908101604052809291908181526020018280548015610e8f57602002820191906000526020600020905b8160009054906101000a900473ffffffffffffffffffffffffffffffffffffffff1673ffffffffffffffffffffffffffffffffffffffff1681526020019060010190808311610e45575b505050505081525050905090565b6060600060018054905067ffffffffffffffff811115610ec057610ebf611451565b5b604051908082528060200260200182016040528015610ef957816020015b610ee66113e2565b815260200190600190039081610ede5790505b50905060005b600180549050811015611255576002600060018381548110610f2457610f23611bc0565b5b9060005260206000200160009054906101000a900473ffffffffffffffffffffffffffffffffffffffff1673ffffffffffffffffffffffffffffffffffffffff1673ffffffffffffffffffffffffffffffffffffffff1681526020019081526020016000206040518060a00160405290816000820160009054906101000a900473ffffffffffffffffffffffffffffffffffffffff1673ffffffffffffffffffffffffffffffffffffffff1673ffffffffffffffffffffffffffffffffffffffff168152602001600182018054610ffa90611c8a565b80601f016020809104026020016040519081016040528092919081815260200182805461102690611c8a565b80156110735780601f1061104857610100808354040283529160200191611073565b820191906000526020600020905b81548152906001019060200180831161105657829003601f168201915b5050505050815260200160028201805461108c90611c8a565b80601f01602080910402602001604051908101604052809291908181526020018280546110b890611c8a565b80156111055780601f106110da57610100808354040283529160200191611105565b820191906000526020600020905b8154815290600101906020018083116110e857829003601f168201915b505050505081526020016003820180548060200260200160405190810160405280929190818152602001828054801561119357602002820191906000526020600020905b8160009054906101000a900473ffffffffffffffffffffffffffffffffffffffff1673ffffffffffffffffffffffffffffffffffffffff1681526020019060010190808311611149575b505050505081526020016004820180548060200260200160405190810160405280929190818152602001828054801561122157602002820191906000526020600020905b8160009054906101000a900473ffffffffffffffffffffffffffffffffffffffff1673ffffffffffffffffffffffffffffffffffffffff16815260200190600101908083116111d7575b50505050508152505082828151811061123d5761123c611bc0565b5b60200260200101819052508080600101915050610eff565b508091505090565b60005b82805490508110156113dd578173ffffffffffffffffffffffffffffffffffffffff1683828154811061129657611295611bc0565b5b9060005260206000200160009054906101000a900473ffffffffffffffffffffffffffffffffffffffff1673ffffffffffffffffffffffffffffffffffffffff16036113d05782600184805490506112ee91906120d7565b815481106112ff576112fe611bc0565b5b9060005260206000200160009054906101000a900473ffffffffffffffffffffffffffffffffffffffff1683828154811061133d5761133c611bc0565b5b9060005260206000200160006101000a81548173ffffffffffffffffffffffffffffffffffffffff021916908373ffffffffffffffffffffffffffffffffffffffff160217905550828054806113965761139561210b565b5b6001900381819060005260206000200160006101000a81549073ffffffffffffffffffffffffffffffffffffffff021916905590556113dd565b8080600101915050611260565b505050565b6040518060a00160405280600073ffffffffffffffffffffffffffffffffffffffff168152602001606081526020016060815260200160608152602001606081525090565b6000604051905090565b600080fd5b600080fd5b600080fd5b6000601f19601f8301169050919050565b7f4e487b7100000000000000000000000000000000000000000000000000000000600052604160045260246000fd5b61148982611440565b810181811067ffffffffffffffff821117156114a8576114a7611451565b5b80604052505050565b60006114bb611427565b90506114c78282611480565b919050565b600067ffffffffffffffff8211156114e7576114e6611451565b5b602082029050602081019050919050565b600080fd5b600073ffffffffffffffffffffffffffffffffffffffff82169050919050565b6000611528826114fd565b9050919050565b6115388161151d565b811461154357600080fd5b50565b6000813590506115558161152f565b92915050565b600061156e611569846114cc565b6114b1565b90508083825260208201905060208402830185811115611591576115906114f8565b5b835b818110156115ba57806115a68882611546565b845260208401935050602081019050611593565b5050509392505050565b600082601f8301126115d9576115d861143b565b5b81356115e984826020860161155b565b91505092915050565b60006020828403121561160857611607611431565b5b600082013567ffffffffffffffff81111561162657611625611436565b5b611632848285016115c4565b91505092915050565b60006020828403121561165157611650611431565b5b600061165f84828501611546565b91505092915050565b6000819050919050565b61167b81611668565b82525050565b60006020820190506116966000830184611672565b92915050565b6116a58161151d565b82525050565b600081519050919050565b600082825260208201905092915050565b60005b838110156116e55780820151818401526020810190506116ca565b60008484015250505050565b60006116fc826116ab565b61170681856116b6565b93506117168185602086016116c7565b61171f81611440565b840191505092915050565b600060608201905061173f600083018661169c565b818103602083015261175181856116f1565b9050818103604083015261176581846116f1565b9050949350505050565b600080fd5b600067ffffffffffffffff82111561178f5761178e611451565b5b61179882611440565b9050602081019050919050565b82818337600083830152505050565b60006117c76117c284611774565b6114b1565b9050828152602081018484840111156117e3576117e261176f565b5b6117ee8482856117a5565b509392505050565b600082601f83011261180b5761180a61143b565b5b813561181b8482602086016117b4565b91505092915050565b6000806040838503121561183b5761183a611431565b5b600083013567ffffffffffffffff81111561185957611858611436565b5b611865858286016117f6565b925050602083013567ffffffffffffffff81111561188657611885611436565b5b611892858286016117f6565b9150509250929050565b6118a58161151d565b82525050565b600082825260208201905092915050565b60006118c7826116ab565b6118d181856118ab565b93506118e18185602086016116c7565b6118ea81611440565b840191505092915050565b600081519050919050565b600082825260208201905092915050565b6000819050602082019050919050565b600061192d838361189c565b60208301905092915050565b6000602082019050919050565b6000611951826118f5565b61195b8185611900565b935061196683611911565b8060005b8381101561199757815161197e8882611921565b975061198983611939565b92505060018101905061196a565b5085935050505092915050565b600060a0830160008301516119bc600086018261189c565b50602083015184820360208601526119d482826118bc565b915050604083015184820360408601526119ee82826118bc565b91505060608301518482036060860152611a088282611946565b91505060808301518482036080860152611a228282611946565b9150508091505092915050565b60006020820190508181036000830152611a4981846119a4565b905092915050565b600081519050919050565b600082825260208201905092915050565b6000819050602082019050919050565b600060a083016000830151611a95600086018261189c565b5060208301518482036020860152611aad82826118bc565b91505060408301518482036040860152611ac782826118bc565b91505060608301518482036060860152611ae18282611946565b91505060808301518482036080860152611afb8282611946565b9150508091505092915050565b6000611b148383611a7d565b905092915050565b6000602082019050919050565b6000611b3482611a51565b611b3e8185611a5c565b935083602082028501611b5085611a6d565b8060005b85811015611b8c5784840389528151611b6d8582611b08565b9450611b7883611b1c565b925060208a01995050600181019050611b54565b50829750879550505050505092915050565b60006020820190508181036000830152611bb88184611b29565b905092915050565b7f4e487b7100000000000000000000000000000000000000000000000000000000600052603260045260246000fd5b7f50726f66696c6520646f6573206e6f742065786973742e000000000000000000600082015250565b6000611c256017836116b6565b9150611c3082611bef565b602082019050919050565b60006020820190508181036000830152611c5481611c18565b9050919050565b7f4e487b7100000000000000000000000000000000000000000000000000000000600052602260045260246000fd5b60006002820490506001821680611ca257607f821691505b602082108103611cb557611cb4611c5b565b5b50919050565b7f557365722070726f66696c6520616c7265616479206578697374732e00000000600082015250565b6000611cf1601c836116b6565b9150611cfc82611cbb565b602082019050919050565b60006020820190508181036000830152611d2081611ce4565b9050919050565b60008190508160005260206000209050919050565b60006020601f8301049050919050565b600082821b905092915050565b600060088302611d897fffffffffffffffffffffffffffffffffffffffffffffffffffffffffffffffff82611d4c565b611d938683611d4c565b95508019841693508086168417925050509392505050565b6000819050919050565b6000611dd0611dcb611dc684611668565b611dab565b611668565b9050919050565b6000819050919050565b611dea83611db5565b611dfe611df682611dd7565b848454611d59565b825550505050565b600090565b611e13611e06565b611e1e818484611de1565b505050565b5b81811015611e4257611e37600082611e0b565b600181019050611e24565b5050565b601f821115611e8757611e5881611d27565b611e6184611d3c565b81016020851015611e70578190505b611e84611e7c85611d3c565b830182611e23565b50505b505050565b600082821c905092915050565b6000611eaa60001984600802611e8c565b1980831691505092915050565b6000611ec38383611e99565b9150826002028217905092915050565b611edc826116ab565b67ffffffffffffffff811115611ef557611ef4611451565b5b611eff8254611c8a565b611f0a828285611e46565b600060209050601f831160018114611f3d5760008415611f2b578287015190505b611f358582611eb7565b865550611f9d565b601f198416611f4b86611d27565b60005b82811015611f7357848901518255600182019150602085019450602081019050611f4e565b86831015611f905784890151611f8c601f891682611e99565b8355505b6001600288020188555050505b505050505050565b7f4e487b7100000000000000000000000000000000000000000000000000000000600052601160045260246000fd5b6000611fdf82611668565b91507fffffffffffffffffffffffffffffffffffffffffffffffffffffffffffffffff820361201157612010611fa5565b5b600182019050919050565b6000815461202981611c8a565b61203381866116b6565b9450600182166000811461204e576001811461206457612097565b60ff198316865281151560200286019350612097565b61206d85611d27565b60005b8381101561208f57815481890152600182019150602081019050612070565b808801955050505b50505092915050565b600060408201905081810360008301526120ba818561201c565b905081810360208301526120ce818461201c565b90509392505050565b60006120e282611668565b91506120ed83611668565b925082820390508181111561210557612104611fa5565b5b92915050565b7f4e487b7100000000000000000000000000000000000000000000000000000000600052603160045260246000fdfea264697066735822122042b85614579a9373fc95574c54799254176b2a6f0c7b4678da0cb0c2b7e2262064736f6c634300081c0033",
  "linkReferences": {},
  "deployedLinkReferences": {}
}